{
  "contractName": "Expenses",
  "abi": [
    {
      "inputs": [],
      "stateMutability": "nonpayable",
      "type": "constructor"
    },
    {
      "anonymous": false,
      "inputs": [
        {
          "indexed": false,
          "internalType": "address",
          "name": "",
          "type": "address"
        }
      ],
      "name": "Initializing",
      "type": "event"
    },
    {
      "inputs": [
        {
          "internalType": "address",
          "name": "_epicBadTimingToken",
          "type": "address"
        }
      ],
      "name": "initialize",
      "outputs": [],
      "stateMutability": "nonpayable",
      "type": "function"
    },
    {
      "inputs": [
        {
          "internalType": "address",
          "name": "_newManagerAddress",
          "type": "address"
        },
        {
          "internalType": "uint256",
          "name": "_quarterly_allowance",
          "type": "uint256"
        }
      ],
      "name": "addManager",
      "outputs": [],
      "stateMutability": "nonpayable",
      "type": "function"
    },
    {
      "inputs": [
        {
          "internalType": "address",
          "name": "_managerAddress",
          "type": "address"
        },
        {
          "internalType": "uint256",
          "name": "_quarterly_allowance",
          "type": "uint256"
        }
      ],
      "name": "updateQuarterlyAllowance",
      "outputs": [],
      "stateMutability": "nonpayable",
      "type": "function"
    },
    {
      "inputs": [
        {
          "internalType": "address",
          "name": "_managerAddress",
          "type": "address"
        }
      ],
      "name": "removeManager",
      "outputs": [],
      "stateMutability": "nonpayable",
      "type": "function"
    },
    {
      "inputs": [
        {
          "internalType": "address",
          "name": "_newEmployeeAddress",
          "type": "address"
        },
        {
          "internalType": "uint256",
          "name": "_monthly_allowance",
          "type": "uint256"
        }
      ],
      "name": "addEmployee",
      "outputs": [],
      "stateMutability": "nonpayable",
      "type": "function"
    },
    {
      "inputs": [
        {
          "internalType": "address",
          "name": "_employeeAddress",
          "type": "address"
        },
        {
          "internalType": "uint256",
          "name": "_monthly_allowance",
          "type": "uint256"
        }
      ],
      "name": "updateMonthlyAllowance",
      "outputs": [],
      "stateMutability": "nonpayable",
      "type": "function"
    },
    {
      "inputs": [
        {
          "internalType": "uint256",
          "name": "_amount",
          "type": "uint256"
        }
      ],
      "name": "claimAllowance",
      "outputs": [],
      "stateMutability": "view",
      "type": "function",
      "constant": true
    }
  ],
  "bytecode": "0x608060405234801561001057600080fd5b5033600260006101000a81548173ffffffffffffffffffffffffffffffffffffffff021916908373ffffffffffffffffffffffffffffffffffffffff160217905550611103806100616000396000f3fe608060405234801561001057600080fd5b506004361061007d5760003560e01c8063ac18de431161005b578063ac18de43146100d6578063c4d66de8146100f2578063e7fd9a131461010e578063f9f8d7611461012a5761007d565b80634b3e07f51461008257806375fb0d781461009e5780638376ab78146100ba575b600080fd5b61009c60048036038101906100979190610cfd565b610146565b005b6100b860048036038101906100b39190610cfd565b610331565b005b6100d460048036038101906100cf9190610cfd565b610489565b005b6100f060048036038101906100eb9190610cd4565b610634565b005b61010c60048036038101906101079190610cd4565b610808565b005b61012860048036038101906101239190610cfd565b61095a565b005b610144600480360381019061013f9190610d39565b610b55565b005b600360003373ffffffffffffffffffffffffffffffffffffffff1673ffffffffffffffffffffffffffffffffffffffff16815260200190815260200160002060000160009054906101000a900473ffffffffffffffffffffffffffffffffffffffff1673ffffffffffffffffffffffffffffffffffffffff163373ffffffffffffffffffffffffffffffffffffffff1614610216576040517f08c379a000000000000000000000000000000000000000000000000000000000815260040161020d90611012565b60405180910390fd5b8173ffffffffffffffffffffffffffffffffffffffff16600460008473ffffffffffffffffffffffffffffffffffffffff1673ffffffffffffffffffffffffffffffffffffffff16815260200190815260200160002060000160009054906101000a900473ffffffffffffffffffffffffffffffffffffffff1673ffffffffffffffffffffffffffffffffffffffff16146102e6576040517f08c379a00000000000000000000000000000000000000000000000000000000081526004016102dd90610f92565b60405180910390fd5b80600460008473ffffffffffffffffffffffffffffffffffffffff1673ffffffffffffffffffffffffffffffffffffffff168152602001908152602001600020600101819055505050565b600260009054906101000a900473ffffffffffffffffffffffffffffffffffffffff1673ffffffffffffffffffffffffffffffffffffffff163373ffffffffffffffffffffffffffffffffffffffff16146103c1576040517f08c379a00000000000000000000000000000000000000000000000000000000081526004016103b890610f72565b60405180910390fd5b600060405180604001604052808473ffffffffffffffffffffffffffffffffffffffff16815260200183815250905080600360008573ffffffffffffffffffffffffffffffffffffffff1673ffffffffffffffffffffffffffffffffffffffff16815260200190815260200160002060008201518160000160006101000a81548173ffffffffffffffffffffffffffffffffffffffff021916908373ffffffffffffffffffffffffffffffffffffffff16021790555060208201518160010155905050505050565b600260009054906101000a900473ffffffffffffffffffffffffffffffffffffffff1673ffffffffffffffffffffffffffffffffffffffff163373ffffffffffffffffffffffffffffffffffffffff1614610519576040517f08c379a000000000000000000000000000000000000000000000000000000000815260040161051090610f72565b60405180910390fd5b8173ffffffffffffffffffffffffffffffffffffffff16600360008473ffffffffffffffffffffffffffffffffffffffff1673ffffffffffffffffffffffffffffffffffffffff16815260200190815260200160002060000160009054906101000a900473ffffffffffffffffffffffffffffffffffffffff1673ffffffffffffffffffffffffffffffffffffffff16146105e9576040517f08c379a00000000000000000000000000000000000000000000000000000000081526004016105e090611032565b60405180910390fd5b80600360008473ffffffffffffffffffffffffffffffffffffffff1673ffffffffffffffffffffffffffffffffffffffff168152602001908152602001600020600101819055505050565b600260009054906101000a900473ffffffffffffffffffffffffffffffffffffffff1673ffffffffffffffffffffffffffffffffffffffff163373ffffffffffffffffffffffffffffffffffffffff16146106c4576040517f08c379a00000000000000000000000000000000000000000000000000000000081526004016106bb90610f72565b60405180910390fd5b8073ffffffffffffffffffffffffffffffffffffffff16600360008373ffffffffffffffffffffffffffffffffffffffff1673ffffffffffffffffffffffffffffffffffffffff16815260200190815260200160002060000160009054906101000a900473ffffffffffffffffffffffffffffffffffffffff1673ffffffffffffffffffffffffffffffffffffffff1614610794576040517f08c379a000000000000000000000000000000000000000000000000000000000815260040161078b90611032565b60405180910390fd5b600360008273ffffffffffffffffffffffffffffffffffffffff1673ffffffffffffffffffffffffffffffffffffffff168152602001908152602001600020600080820160006101000a81549073ffffffffffffffffffffffffffffffffffffffff02191690556001820160009055505050565b600060019054906101000a900460ff168061082e575060008054906101000a900460ff16155b61086d576040517f08c379a000000000000000000000000000000000000000000000000000000000815260040161086490610fb2565b60405180910390fd5b60008060019054906101000a900460ff1615905080156108bd576001600060016101000a81548160ff02191690831515021790555060016000806101000a81548160ff0219169083151502179055505b81600060026101000a81548173ffffffffffffffffffffffffffffffffffffffff021916908373ffffffffffffffffffffffffffffffffffffffff1602179055507f413c01936067b40c3051a8f0b8548eff8fac697243fdf2dbd1f148db9e2918498260405161092d9190610f57565b60405180910390a180156109565760008060016101000a81548160ff0219169083151502179055505b5050565b600360003373ffffffffffffffffffffffffffffffffffffffff1673ffffffffffffffffffffffffffffffffffffffff16815260200190815260200160002060000160009054906101000a900473ffffffffffffffffffffffffffffffffffffffff1673ffffffffffffffffffffffffffffffffffffffff163373ffffffffffffffffffffffffffffffffffffffff1614610a2a576040517f08c379a0000000000000000000000000000000000000000000000000000000008152600401610a2190611012565b60405180910390fd5b600060405180606001604052808473ffffffffffffffffffffffffffffffffffffffff1681526020018381526020013373ffffffffffffffffffffffffffffffffffffffff16815250905080600460008573ffffffffffffffffffffffffffffffffffffffff1673ffffffffffffffffffffffffffffffffffffffff16815260200190815260200160002060008201518160000160006101000a81548173ffffffffffffffffffffffffffffffffffffffff021916908373ffffffffffffffffffffffffffffffffffffffff1602179055506020820151816001015560408201518160020160006101000a81548173ffffffffffffffffffffffffffffffffffffffff021916908373ffffffffffffffffffffffffffffffffffffffff160217905550905050505050565b600460003373ffffffffffffffffffffffffffffffffffffffff1673ffffffffffffffffffffffffffffffffffffffff16815260200190815260200160002060000160009054906101000a900473ffffffffffffffffffffffffffffffffffffffff1673ffffffffffffffffffffffffffffffffffffffff163373ffffffffffffffffffffffffffffffffffffffff1614610c25576040517f08c379a0000000000000000000000000000000000000000000000000000000008152600401610c1c90610fd2565b60405180910390fd5b600560003373ffffffffffffffffffffffffffffffffffffffff1673ffffffffffffffffffffffffffffffffffffffff16815260200190815260200160002054811015610ca7576040517f08c379a0000000000000000000000000000000000000000000000000000000008152600401610c9e90610ff2565b60405180910390fd5b50565b600081359050610cb98161109f565b92915050565b600081359050610cce816110b6565b92915050565b600060208284031215610ce657600080fd5b6000610cf484828501610caa565b91505092915050565b60008060408385031215610d1057600080fd5b6000610d1e85828601610caa565b9250506020610d2f85828601610cbf565b9150509250929050565b600060208284031215610d4b57600080fd5b6000610d5984828501610cbf565b91505092915050565b610d6b81611063565b82525050565b6000610d7e601a83611052565b91507f416363657373207265737472696374656420746f2061646d696e0000000000006000830152602082019050919050565b6000610dbe601783611052565b91507f456d706c6f79656520646f6573206e6f742065786973740000000000000000006000830152602082019050919050565b6000610dfe602e83611052565b91507f496e697469616c697a61626c653a20636f6e747261637420697320616c72656160008301527f647920696e697469616c697a65640000000000000000000000000000000000006020830152604082019050919050565b6000610e64601d83611052565b91507f416363657373207265737472696374656420746f20656d706c6f7965650000006000830152602082019050919050565b6000610ea4602083611052565b91507f4e6f7420656e6f75676820616c6c6f77616e636520746f2077697468647261776000830152602082019050919050565b6000610ee4601c83611052565b91507f416363657373207265737472696374656420746f206d616e61676572000000006000830152602082019050919050565b6000610f24601683611052565b91507f4d616e6167657220646f6573206e6f74206578697374000000000000000000006000830152602082019050919050565b6000602082019050610f6c6000830184610d62565b92915050565b60006020820190508181036000830152610f8b81610d71565b9050919050565b60006020820190508181036000830152610fab81610db1565b9050919050565b60006020820190508181036000830152610fcb81610df1565b9050919050565b60006020820190508181036000830152610feb81610e57565b9050919050565b6000602082019050818103600083015261100b81610e97565b9050919050565b6000602082019050818103600083015261102b81610ed7565b9050919050565b6000602082019050818103600083015261104b81610f17565b9050919050565b600082825260208201905092915050565b600061106e82611075565b9050919050565b600073ffffffffffffffffffffffffffffffffffffffff82169050919050565b6000819050919050565b6110a881611063565b81146110b357600080fd5b50565b6110bf81611095565b81146110ca57600080fd5b5056fea26469706673582212203f9fb5cd00e330c9f500534e1beb665a00500f07d09680b8d3ee676e804fd91564736f6c63430008000033",
  "immutableReferences": {},
  "source": "// SPDX-License-Identifier: MIT\npragma solidity ^0.8.0;\n\nimport \"@openzeppelin/contracts/token/ERC20/IERC20.sol\";\n// TODO look up what this does\nimport \"@openzeppelin/contracts-upgradeable/proxy/utils/Initializable.sol\";\n\ncontract Expenses is Initializable {\n  // define structs\n  struct employee {\n    address id;\n    uint monthly_allowance;\n    address manager;\n  }\n\n  struct manager {\n    address id;\n    uint256 quarterly_allowance;\n  }\n\n  // define state variables\n  IERC20 private EpicBadTimingToken;\n  uint256 currentTotalAllowance;\n  address admin;\n  mapping(address => manager) managers;\n  mapping(address => employee) employees;\n  mapping(address => uint256) allowance;\n\n\n  // define state at compile\n  constructor() {\n    admin = msg.sender;\n  }\n\n  // define events\n  event Initializing(address);\n\n  // define modifiers\n  modifier restrictedAdmin() {\n    require(\n      msg.sender == admin,\n      \"Access restricted to admin\"\n    );\n    _;\n  }\n\n  modifier restrictedManager() {\n    require(\n      msg.sender == managers[msg.sender].id,\n      \"Access restricted to manager\"\n    );\n    _;\n  }\n\n  modifier restrictedEmployee() {\n    require(\n      msg.sender == employees[msg.sender].id,\n      \"Access restricted to employee\"\n    );\n    _;\n  }\n\n  // define methods\n\n  // initializes ERC20 token in contract\n  function initialize(address _epicBadTimingToken) public initializer {\n      EpicBadTimingToken = IERC20(_epicBadTimingToken);\n      emit Initializing(_epicBadTimingToken);\n  }\n\n\n  // ! admin restricted methods (this could be changed to be updated by the dao)\n\n  // add manager\n  function addManager(address _newManagerAddress, uint256 _quarterly_allowance) restrictedAdmin public {\n    manager memory newManager = manager({\n      id: _newManagerAddress,\n      quarterly_allowance: _quarterly_allowance\n    });\n\n    managers[_newManagerAddress] = newManager;\n  }\n  // update manager (quartly_allowance)\n  function updateQuarterlyAllowance(address _managerAddress, uint256 _quarterly_allowance) restrictedAdmin public {\n    require(managers[_managerAddress].id == _managerAddress, 'Manager does not exist');\n    managers[_managerAddress].quarterly_allowance = _quarterly_allowance;\n  }\n  // remove manager\n  function removeManager(address _managerAddress) restrictedAdmin public {\n    require(managers[_managerAddress].id == _managerAddress, 'Manager does not exist');\n    delete managers[_managerAddress];\n  }\n  \n  // ! manager  restricted methods\n  \n  // add employee\n  function addEmployee(address _newEmployeeAddress, uint256 _monthly_allowance) restrictedManager public {\n    employee memory newEmployee = employee({\n      id: _newEmployeeAddress,\n      monthly_allowance: _monthly_allowance,\n      manager: msg.sender\n    });\n\n    employees[_newEmployeeAddress] = newEmployee;\n  }\n\n  // update employee (monthly_balance)\n  function updateMonthlyAllowance(address _employeeAddress, uint256 _monthly_allowance) restrictedManager public {\n    require(employees[_employeeAddress].id == _employeeAddress, 'Employee does not exist');\n    employees[_employeeAddress].monthly_allowance = _monthly_allowance;\n  }\n\n  // ! employee restricted methods\n\n  // claim amount out of allowance\n  function claimAllowance(uint256 _amount) restrictedEmployee public view {\n    require(_amount >= allowance[msg.sender], 'Not enough allowance to withdraw');\n  }\n}\n\n// ! interal methods\n\n",
  "sourcePath": "/Users/epicbadtiming/Projects/Personal/contracts_dapp/contracts/Expenses.sol",
  "compiler": {
    "name": "solc",
    "version": "0.8.0+commit.c7dfd78e.Emscripten.clang"
  },
  "schemaVersion": "3.3.4",
  "updatedAt": "2021-04-11T02:44:39.546Z",
  "networkType": "ethereum",
  "devdoc": {
    "kind": "dev",
    "methods": {},
    "version": 1
  },
  "userdoc": {
    "kind": "user",
    "methods": {},
    "version": 1
  }
}