{
  "contractName": "TreasuryContract",
  "abi": [
    {
      "anonymous": false,
      "inputs": [
        {
          "indexed": true,
          "internalType": "bytes32",
          "name": "role",
          "type": "bytes32"
        },
        {
          "indexed": true,
          "internalType": "bytes32",
          "name": "previousAdminRole",
          "type": "bytes32"
        },
        {
          "indexed": true,
          "internalType": "bytes32",
          "name": "newAdminRole",
          "type": "bytes32"
        }
      ],
      "name": "RoleAdminChanged",
      "type": "event"
    },
    {
      "anonymous": false,
      "inputs": [
        {
          "indexed": true,
          "internalType": "bytes32",
          "name": "role",
          "type": "bytes32"
        },
        {
          "indexed": true,
          "internalType": "address",
          "name": "account",
          "type": "address"
        },
        {
          "indexed": true,
          "internalType": "address",
          "name": "sender",
          "type": "address"
        }
      ],
      "name": "RoleGranted",
      "type": "event"
    },
    {
      "anonymous": false,
      "inputs": [
        {
          "indexed": true,
          "internalType": "bytes32",
          "name": "role",
          "type": "bytes32"
        },
        {
          "indexed": true,
          "internalType": "address",
          "name": "account",
          "type": "address"
        },
        {
          "indexed": true,
          "internalType": "address",
          "name": "sender",
          "type": "address"
        }
      ],
      "name": "RoleRevoked",
      "type": "event"
    },
    {
      "inputs": [],
      "name": "ADMIN_ROLE",
      "outputs": [
        {
          "internalType": "bytes32",
          "name": "",
          "type": "bytes32"
        }
      ],
      "stateMutability": "view",
      "type": "function",
      "constant": true
    },
    {
      "inputs": [],
      "name": "DEFAULT_ADMIN_ROLE",
      "outputs": [
        {
          "internalType": "bytes32",
          "name": "",
          "type": "bytes32"
        }
      ],
      "stateMutability": "view",
      "type": "function",
      "constant": true
    },
    {
      "inputs": [],
      "name": "EMPLOYEE_ROLE",
      "outputs": [
        {
          "internalType": "bytes32",
          "name": "",
          "type": "bytes32"
        }
      ],
      "stateMutability": "view",
      "type": "function",
      "constant": true
    },
    {
      "inputs": [],
      "name": "MANAGER_ROLE",
      "outputs": [
        {
          "internalType": "bytes32",
          "name": "",
          "type": "bytes32"
        }
      ],
      "stateMutability": "view",
      "type": "function",
      "constant": true
    },
    {
      "inputs": [
        {
          "internalType": "bytes32",
          "name": "role",
          "type": "bytes32"
        }
      ],
      "name": "getRoleAdmin",
      "outputs": [
        {
          "internalType": "bytes32",
          "name": "",
          "type": "bytes32"
        }
      ],
      "stateMutability": "view",
      "type": "function",
      "constant": true
    },
    {
      "inputs": [
        {
          "internalType": "bytes32",
          "name": "role",
          "type": "bytes32"
        },
        {
          "internalType": "address",
          "name": "account",
          "type": "address"
        }
      ],
      "name": "grantRole",
      "outputs": [],
      "stateMutability": "nonpayable",
      "type": "function"
    },
    {
      "inputs": [
        {
          "internalType": "bytes32",
          "name": "role",
          "type": "bytes32"
        },
        {
          "internalType": "address",
          "name": "account",
          "type": "address"
        }
      ],
      "name": "hasRole",
      "outputs": [
        {
          "internalType": "bool",
          "name": "",
          "type": "bool"
        }
      ],
      "stateMutability": "view",
      "type": "function",
      "constant": true
    },
    {
      "inputs": [
        {
          "internalType": "bytes32",
          "name": "role",
          "type": "bytes32"
        },
        {
          "internalType": "address",
          "name": "account",
          "type": "address"
        }
      ],
      "name": "renounceRole",
      "outputs": [],
      "stateMutability": "nonpayable",
      "type": "function"
    },
    {
      "inputs": [
        {
          "internalType": "bytes32",
          "name": "role",
          "type": "bytes32"
        },
        {
          "internalType": "address",
          "name": "account",
          "type": "address"
        }
      ],
      "name": "revokeRole",
      "outputs": [],
      "stateMutability": "nonpayable",
      "type": "function"
    },
    {
      "inputs": [
        {
          "internalType": "bytes4",
          "name": "interfaceId",
          "type": "bytes4"
        }
      ],
      "name": "supportsInterface",
      "outputs": [
        {
          "internalType": "bool",
          "name": "",
          "type": "bool"
        }
      ],
      "stateMutability": "view",
      "type": "function",
      "constant": true
    },
    {
      "inputs": [
        {
          "internalType": "uint128",
          "name": "managerBP",
          "type": "uint128"
        },
        {
          "internalType": "uint128",
          "name": "employeBP",
          "type": "uint128"
        }
      ],
      "name": "createTreasury",
      "outputs": [],
      "stateMutability": "nonpayable",
      "type": "function"
    },
    {
      "inputs": [],
      "name": "closeTreasury",
      "outputs": [],
      "stateMutability": "nonpayable",
      "type": "function"
    },
    {
      "inputs": [
        {
          "internalType": "uint128",
          "name": "bp",
          "type": "uint128"
        }
      ],
      "name": "updateManagerBP",
      "outputs": [],
      "stateMutability": "nonpayable",
      "type": "function"
    },
    {
      "inputs": [
        {
          "internalType": "uint128",
          "name": "bp",
          "type": "uint128"
        }
      ],
      "name": "updateEmployeeBP",
      "outputs": [],
      "stateMutability": "nonpayable",
      "type": "function"
    },
    {
      "inputs": [
        {
          "internalType": "address payable",
          "name": "recipient",
          "type": "address"
        }
      ],
      "name": "quarterlyBalanceRefresh",
      "outputs": [],
      "stateMutability": "payable",
      "type": "function",
      "payable": true
    },
    {
      "inputs": [
        {
          "internalType": "address",
          "name": "newManager",
          "type": "address"
        },
        {
          "internalType": "uint256",
          "name": "allowance",
          "type": "uint256"
        }
      ],
      "name": "createManager",
      "outputs": [],
      "stateMutability": "nonpayable",
      "type": "function"
    },
    {
      "inputs": [
        {
          "internalType": "address",
          "name": "newEmployee",
          "type": "address"
        },
        {
          "internalType": "uint256",
          "name": "allowance",
          "type": "uint256"
        }
      ],
      "name": "createEmployee",
      "outputs": [],
      "stateMutability": "nonpayable",
      "type": "function"
    }
  ],
  "bytecode": "0x608060405234801561001057600080fd5b50611301806100206000396000f3fe60806040526004361061010e5760003560e01c8063520a19c0116100a5578063a217fddf11610074578063d547741f11610059578063d547741f146102ca578063ec87621c146102ea578063eda52c61146102ff5761010e565b8063a217fddf14610295578063d03b66ad146102aa5761010e565b8063520a19c0146102205780636f9e2fd61461024057806375b238fc1461026057806391d14854146102755761010e565b80632a4cab90116100e15780632a4cab90146101ab5780632e6d2944146101c05780632f2ff15d146101e057806336568abe146102005761010e565b806301ffc9a7146101135780630547484814610149578063220c5c5c1461016b578063248a9ca31461017e575b600080fd5b34801561011f57600080fd5b5061013361012e366004610f9c565b610314565b6040516101409190611028565b60405180910390f35b34801561015557600080fd5b50610169610164366004610ff6565b610372565b005b610169610179366004610f0e565b61049e565b34801561018a57600080fd5b5061019e610199366004610f55565b6106b2565b6040516101409190611033565b3480156101b757600080fd5b5061019e6106c7565b3480156101cc57600080fd5b506101696101db366004610f2a565b6106eb565b3480156101ec57600080fd5b506101696101fb366004610f6d565b610856565b34801561020c57600080fd5b5061016961021b366004610f6d565b610894565b34801561022c57600080fd5b5061016961023b366004610f2a565b6108d6565b34801561024c57600080fd5b5061016961025b366004610fdc565b610a1a565b34801561026c57600080fd5b5061019e610adf565b34801561028157600080fd5b50610133610290366004610f6d565b610b03565b3480156102a157600080fd5b5061019e610b2e565b3480156102b657600080fd5b506101696102c5366004610fdc565b610b33565b3480156102d657600080fd5b506101696102e5366004610f6d565b610bf9565b3480156102f657600080fd5b5061019e610c21565b34801561030b57600080fd5b50610169610c45565b60007fffffffff0000000000000000000000000000000000000000000000000000000082167f7965db0b00000000000000000000000000000000000000000000000000000000148061036a575061036a82610ce2565b90505b919050565b6040805160a08101825233808252600160208084018281526fffffffffffffffffffffffffffffffff88811686880190815288821660608801908152885160008082528187018b5260808a01918252888152609987529990992088518154955173ffffffffffffffffffffffffffffffffffffffff199096166001600160a01b03919091161760ff60a01b1916600160a01b951515959095029490941784559051948301805491516fffffffffffffffffffffffffffffffff19909216958316959095178216700100000000000000000000000000000000919092160217909255935180519294919261046b9260028501920190610e67565b509050506104997fa49807205ce4d355092ef5a8a18f56e8913cf4a201fbe287825b095693c2177582610886565b505050565b33600090815260996020526040902054600160a01b900460ff1615156001146104e25760405162461bcd60e51b81526004016104d990611107565b60405180910390fd5b6001600160a01b038116600090815260976020526040812060028101546003909101543392916105129190610d2c565b905061053e7fa49807205ce4d355092ef5a8a18f56e8913cf4a201fbe287825b095693c2177583610b03565b61055a5760405162461bcd60e51b81526004016104d990611099565b80826001600160a01b031631106105835760405162461bcd60e51b81526004016104d9906110d0565b6001600160a01b03808416600081815260976020526040902054909116146105bd5760405162461bcd60e51b81526004016104d9906111f8565b6040516001600160a01b0384169082156108fc029083906000818181858888f193505050501580156105f3573d6000803e3d6000fd5b506001600160a01b038083166000908152609960209081526040808320600101549387168352609790915290206002015461064d916103e891610647916fffffffffffffffffffffffffffffffff16610d3f565b90610d4b565b6001600160a01b0384166000908152609760205260408120600401805490919061067890849061122f565b90915550506001600160a01b038316600090815260976020526040812060020180548392906106a890849061122f565b9091555050505050565b60009081526065602052604090206001015490565b7f5a3425ea67e73c95853ecfc0c443062de292a303c186bc2aac1178ae1b86c62a81565b33600090815260996020526040902054600160a01b900460ff1615156001146107265760405162461bcd60e51b81526004016104d990611107565b6107507fa49807205ce4d355092ef5a8a18f56e8913cf4a201fbe287825b095693c2177533610b03565b61076c5760405162461bcd60e51b81526004016104d990611099565b33600081815260996020908152604080832060029081018054600180820183559186528486200180546001600160a01b038a811673ffffffffffffffffffffffffffffffffffffffff199283168117909355855160c0810187528381528088018a81528188018c8152606083018d8152608084018c81528a518d8152808d018c5260a08601908152978d5260978c5299909b208351815487169086161781559151968201805490951696909316959095179092555193830193909355945160038201559151600483015592518051919261084e92600585019290910190610e67565b505050505050565b61086a610862836106b2565b610290610d57565b6108865760405162461bcd60e51b81526004016104d99061103c565b6108908282610d5b565b5050565b61089c610d57565b6001600160a01b0316816001600160a01b0316146108cc5760405162461bcd60e51b81526004016104d99061119b565b6108908282610de2565b336109017f241ecf16d79d0f8dbfb92cbc07fe17840425976cf0667f022fe9877caa831b0882610b03565b61091d5760405162461bcd60e51b81526004016104d990611099565b6001600160a01b03818116600090815260976020908152604080832060019081015490941683526099909152902054600160a01b900460ff161515146109755760405162461bcd60e51b81526004016104d990611107565b6001600160a01b03908116600090815260976020908152604080832060050180546001818101835591855283852001805497861673ffffffffffffffffffffffffffffffffffffffff199889168117909155825160808101845281815280850188815281850198895260608201878152928752609890955292909420915182549516949096169390931783555193820193909355905160028201559051600390910155565b33600090815260996020526040902054600160a01b900460ff161515600114610a555760405162461bcd60e51b81526004016104d990611107565b610a7f7fa49807205ce4d355092ef5a8a18f56e8913cf4a201fbe287825b095693c2177533610b03565b610a9b5760405162461bcd60e51b81526004016104d990611099565b33600090815260996020526040902060010180546fffffffffffffffffffffffffffffffff19166fffffffffffffffffffffffffffffffff92909216919091179055565b7fa49807205ce4d355092ef5a8a18f56e8913cf4a201fbe287825b095693c2177581565b60009182526065602090815260408084206001600160a01b0393909316845291905290205460ff1690565b600081565b33600090815260996020526040902054600160a01b900460ff161515600114610b6e5760405162461bcd60e51b81526004016104d990611107565b610b987fa49807205ce4d355092ef5a8a18f56e8913cf4a201fbe287825b095693c2177533610b03565b610bb45760405162461bcd60e51b81526004016104d990611099565b33600090815260996020526040902060010180546fffffffffffffffffffffffffffffffff928316700100000000000000000000000000000000029216919091179055565b610c05610862836106b2565b6108cc5760405162461bcd60e51b81526004016104d99061113e565b7f241ecf16d79d0f8dbfb92cbc07fe17840425976cf0667f022fe9877caa831b0881565b33600090815260996020526040902054600160a01b900460ff161515600114610c805760405162461bcd60e51b81526004016104d990611107565b610caa7fa49807205ce4d355092ef5a8a18f56e8913cf4a201fbe287825b095693c2177533610b03565b610cc65760405162461bcd60e51b81526004016104d990611099565b336000908152609960205260409020805460ff60a01b19169055565b7fffffffff0000000000000000000000000000000000000000000000000000000081167f01ffc9a70000000000000000000000000000000000000000000000000000000014919050565b6000610d388284611286565b9392505050565b6000610d388284611267565b6000610d388284611247565b3390565b610d658282610b03565b6108905760008281526065602090815260408083206001600160a01b03851684529091529020805460ff19166001179055610d9e610d57565b6001600160a01b0316816001600160a01b0316837f2f8788117e7eff1d82e926ec794901d17c78024a50270940304540a733656f0d60405160405180910390a45050565b610dec8282610b03565b156108905760008281526065602090815260408083206001600160a01b03851684529091529020805460ff19169055610e23610d57565b6001600160a01b0316816001600160a01b0316837ff6391f5c32d9c69d2a47ea670b442974b53935d1edc7fd64eb21e047a839171b60405160405180910390a45050565b828054828255906000526020600020908101928215610ec9579160200282015b82811115610ec9578251825473ffffffffffffffffffffffffffffffffffffffff19166001600160a01b03909116178255602090920191600190910190610e87565b50610ed5929150610ed9565b5090565b5b80821115610ed55760008155600101610eda565b80356fffffffffffffffffffffffffffffffff8116811461036d57600080fd5b600060208284031215610f1f578081fd5b8135610d38816112b3565b60008060408385031215610f3c578081fd5b8235610f47816112b3565b946020939093013593505050565b600060208284031215610f66578081fd5b5035919050565b60008060408385031215610f7f578182fd5b823591506020830135610f91816112b3565b809150509250929050565b600060208284031215610fad578081fd5b81357fffffffff0000000000000000000000000000000000000000000000000000000081168114610d38578182fd5b600060208284031215610fed578081fd5b610d3882610eee565b60008060408385031215611008578182fd5b61101183610eee565b915061101f60208401610eee565b90509250929050565b901515815260200190565b90815260200190565b6020808252602f908201527f416363657373436f6e74726f6c3a2073656e646572206d75737420626520616e60408201527f2061646d696e20746f206772616e740000000000000000000000000000000000606082015260800190565b60208082526015908201527f526573747269637465642041646d696e204f6e6c790000000000000000000000604082015260600190565b6020808252601d908201527f4e6f7420656e6f756768742066756e647320746f207472616e73666572000000604082015260600190565b60208082526012908201527f547265617375727920697320636c6f7365640000000000000000000000000000604082015260600190565b60208082526030908201527f416363657373436f6e74726f6c3a2073656e646572206d75737420626520616e60408201527f2061646d696e20746f207265766f6b6500000000000000000000000000000000606082015260800190565b6020808252602f908201527f416363657373436f6e74726f6c3a2063616e206f6e6c792072656e6f756e636560408201527f20726f6c657320666f722073656c660000000000000000000000000000000000606082015260800190565b60208082526016908201527f4d616e6167657220646f6573206e6f7420657869737400000000000000000000604082015260600190565b600082198211156112425761124261129d565b500190565b60008261126257634e487b7160e01b81526012600452602481fd5b500490565b60008160001904831182151516156112815761128161129d565b500290565b6000828210156112985761129861129d565b500390565b634e487b7160e01b600052601160045260246000fd5b6001600160a01b03811681146112c857600080fd5b5056fea2646970667358221220a748cad9c52711b97f9c2c29b07c0c0312806e370d10bb2ce1bc796127e576cf64736f6c63430008000033",
  "immutableReferences": {},
  "source": "// SPDX-License-Identifier: MIT\npragma solidity ^0.8.0;\nimport \"@openzeppelin/contracts-upgradeable/access/AccessControlUpgradeable.sol\";\nimport \"@openzeppelin/contracts-upgradeable/utils/math/SafeMathUpgradeable.sol\";\n\ncontract TreasuryContract is AccessControlUpgradeable {\n  using SafeMathUpgradeable for uint256;\n\n  bytes32 public constant ADMIN_ROLE = keccak256(\"ADMIN_ROLE\");\n  bytes32 public constant MANAGER_ROLE = keccak256(\"MANAGER_ROLE\");\n  bytes32 public constant EMPLOYEE_ROLE = keccak256(\"EMPLOYEE_ROLE\");\n\n  struct Treasury {\n    address id;\n    bool active;\n    uint128 manager_rewards_bp;\n    uint128 employee_rewards_bp;\n    address[] managers;\n  }\n\n  // define structs\n  struct Employee {\n    address id;\n    uint256 balance;\n    uint256 monthly_allowance;\n    uint256 rewards_total;\n  }\n\n  struct Manager {\n    address id;\n    address treasury;\n    uint256 balance;\n    uint256 quarterly_allowance;\n    uint256 rewards_total;\n    address[] employees;\n  }\n\n  modifier treasuryIsActive {\n    require(\n      treasuries[msg.sender].active == true,\n      'Treasury is closed'\n    );\n    _;\n  }\n\n  // define state variables\n  mapping(address => Manager) managers;\n  mapping(address => Employee) employees;\n  mapping(address => Treasury) treasuries;\n\n  function createTreasury(uint128 managerBP, uint128 employeBP) public {\n    address _account = msg.sender;\n    treasuries[_account] = Treasury({\n      active: true,\n      id: _account,\n      manager_rewards_bp: managerBP,\n      employee_rewards_bp: employeBP,\n      managers: new address[](0)\n    });\n    _setupRole(ADMIN_ROLE, _account);\n  }\n\n  function closeTreasury() public treasuryIsActive {\n    require(\n      hasRole(ADMIN_ROLE, msg.sender), \n      'Restricted Admin Only'\n      );\n    treasuries[msg.sender].active = false;\n  }\n\n  function updateManagerBP(uint128 bp) public treasuryIsActive {\n    require(\n      hasRole(ADMIN_ROLE, msg.sender), \n      'Restricted Admin Only'\n      );\n    treasuries[msg.sender].manager_rewards_bp = bp;\n  }\n\n  function updateEmployeeBP(uint128 bp) public treasuryIsActive {\n    require(\n      hasRole(ADMIN_ROLE, msg.sender), \n      'Restricted Admin Only'\n      );\n    treasuries[msg.sender].employee_rewards_bp = bp;\n  }\n\n  function quarterlyBalanceRefresh(address payable recipient) public payable treasuryIsActive {\n    address _account = msg.sender;\n    uint256 difference = managers[recipient].quarterly_allowance.sub(managers[recipient].balance);\n    require(\n      hasRole(ADMIN_ROLE, _account), \n      'Restricted Admin Only'\n      );\n    require(\n      difference >= 0, \n      'No deposit needed'\n      );\n    require(\n      _account.balance < difference, \n      'Not enought funds to transfer'\n      );\n    require(\n      managers[recipient].id == recipient, \n      'Manager does not exist'\n      );\n\n    recipient.transfer(difference);\n    managers[recipient].rewards_total += managers[recipient].balance.mul(treasuries[_account].manager_rewards_bp).div(10**3);\n    managers[recipient].balance += difference;\n  }\n\n  function createManager(address newManager, uint256 allowance) public treasuryIsActive {\n    require(\n      hasRole(ADMIN_ROLE, msg.sender), \n      'Restricted Admin Only'\n      );\n    address _account = msg.sender;\n\n    treasuries[_account].managers.push(newManager);\n\n    managers[newManager] = Manager({\n      id: newManager,\n      employees: new address[](0),\n      treasury: _account,\n      balance: allowance,\n      quarterly_allowance: allowance,\n      rewards_total: 0\n    });\n  }\n\n  function createEmployee(address newEmployee, uint256 allowance) public {\n    address _account = msg.sender;\n    require(\n      hasRole(MANAGER_ROLE, _account), \n      'Restricted Admin Only'\n      );\n    require(\n      treasuries[managers[_account].treasury].active == true,\n      'Treasury is closed'\n      );\n\n    managers[_account].employees.push(newEmployee);\n\n    employees[newEmployee] = Employee({\n      id: newEmployee,\n      balance: allowance,\n      monthly_allowance: allowance,\n      rewards_total: 0\n    });\n  }\n  \n}",
  "sourcePath": "/Users/epicbadtiming/Projects/Personal/expenses-contracts/contracts/Treasury.sol",
  "compiler": {
    "name": "solc",
    "version": "0.8.0+commit.c7dfd78e.Emscripten.clang"
  },
  "schemaVersion": "3.3.3",
  "updatedAt": "2021-05-09T18:56:26.780Z",
  "networkType": "ethereum",
  "devdoc": {
    "kind": "dev",
    "methods": {
      "getRoleAdmin(bytes32)": {
        "details": "Returns the admin role that controls `role`. See {grantRole} and {revokeRole}. To change a role's admin, use {_setRoleAdmin}."
      },
      "grantRole(bytes32,address)": {
        "details": "Grants `role` to `account`. If `account` had not been already granted `role`, emits a {RoleGranted} event. Requirements: - the caller must have ``role``'s admin role."
      },
      "hasRole(bytes32,address)": {
        "details": "Returns `true` if `account` has been granted `role`."
      },
      "renounceRole(bytes32,address)": {
        "details": "Revokes `role` from the calling account. Roles are often managed via {grantRole} and {revokeRole}: this function's purpose is to provide a mechanism for accounts to lose their privileges if they are compromised (such as when a trusted device is misplaced). If the calling account had been granted `role`, emits a {RoleRevoked} event. Requirements: - the caller must be `account`."
      },
      "revokeRole(bytes32,address)": {
        "details": "Revokes `role` from `account`. If `account` had been granted `role`, emits a {RoleRevoked} event. Requirements: - the caller must have ``role``'s admin role."
      },
      "supportsInterface(bytes4)": {
        "details": "See {IERC165-supportsInterface}."
      }
    },
    "version": 1
  },
  "userdoc": {
    "kind": "user",
    "methods": {},
    "version": 1
  }
}